{
  "_format": "hh-sol-artifact-1",
  "contractName": "NFT",
  "sourceName": "contracts/NFT.sol",
  "abi": [
    {
      "inputs": [],
      "stateMutability": "nonpayable",
      "type": "constructor"
    },
    {
      "anonymous": false,
      "inputs": [
        {
          "indexed": true,
          "internalType": "address",
          "name": "owner",
          "type": "address"
        },
        {
          "indexed": true,
          "internalType": "address",
          "name": "approved",
          "type": "address"
        },
        {
          "indexed": true,
          "internalType": "uint256",
          "name": "tokenId",
          "type": "uint256"
        }
      ],
      "name": "Approval",
      "type": "event"
    },
    {
      "anonymous": false,
      "inputs": [
        {
          "indexed": true,
          "internalType": "address",
          "name": "owner",
          "type": "address"
        },
        {
          "indexed": true,
          "internalType": "address",
          "name": "operator",
          "type": "address"
        },
        {
          "indexed": false,
          "internalType": "bool",
          "name": "approved",
          "type": "bool"
        }
      ],
      "name": "ApprovalForAll",
      "type": "event"
    },
    {
      "anonymous": false,
      "inputs": [
        {
          "indexed": true,
          "internalType": "address",
          "name": "from",
          "type": "address"
        },
        {
          "indexed": true,
          "internalType": "address",
          "name": "to",
          "type": "address"
        },
        {
          "indexed": true,
          "internalType": "uint256",
          "name": "tokenId",
          "type": "uint256"
        }
      ],
      "name": "Transfer",
      "type": "event"
    },
    {
      "inputs": [
        {
          "internalType": "address",
          "name": "to",
          "type": "address"
        },
        {
          "internalType": "uint256",
          "name": "tokenId",
          "type": "uint256"
        }
      ],
      "name": "approve",
      "outputs": [],
      "stateMutability": "nonpayable",
      "type": "function"
    },
    {
      "inputs": [
        {
          "internalType": "address",
          "name": "owner",
          "type": "address"
        }
      ],
      "name": "balanceOf",
      "outputs": [
        {
          "internalType": "uint256",
          "name": "",
          "type": "uint256"
        }
      ],
      "stateMutability": "view",
      "type": "function"
    },
    {
      "inputs": [
        {
          "internalType": "uint256",
          "name": "tokenId",
          "type": "uint256"
        }
      ],
      "name": "burn",
      "outputs": [],
      "stateMutability": "nonpayable",
      "type": "function"
    },
    {
      "inputs": [
        {
          "internalType": "string",
          "name": "tokenURI",
          "type": "string"
        }
      ],
      "name": "createToken",
      "outputs": [
        {
          "internalType": "uint256",
          "name": "",
          "type": "uint256"
        }
      ],
      "stateMutability": "nonpayable",
      "type": "function"
    },
    {
      "inputs": [
        {
          "internalType": "uint256",
          "name": "tokenId",
          "type": "uint256"
        }
      ],
      "name": "getApproved",
      "outputs": [
        {
          "internalType": "address",
          "name": "",
          "type": "address"
        }
      ],
      "stateMutability": "view",
      "type": "function"
    },
    {
      "inputs": [
        {
          "internalType": "address",
          "name": "owner",
          "type": "address"
        },
        {
          "internalType": "address",
          "name": "operator",
          "type": "address"
        }
      ],
      "name": "isApprovedForAll",
      "outputs": [
        {
          "internalType": "bool",
          "name": "",
          "type": "bool"
        }
      ],
      "stateMutability": "view",
      "type": "function"
    },
    {
      "inputs": [],
      "name": "name",
      "outputs": [
        {
          "internalType": "string",
          "name": "",
          "type": "string"
        }
      ],
      "stateMutability": "view",
      "type": "function"
    },
    {
      "inputs": [
        {
          "internalType": "uint256",
          "name": "tokenId",
          "type": "uint256"
        }
      ],
      "name": "ownerOf",
      "outputs": [
        {
          "internalType": "address",
          "name": "",
          "type": "address"
        }
      ],
      "stateMutability": "view",
      "type": "function"
    },
    {
      "inputs": [
        {
          "internalType": "address",
          "name": "from",
          "type": "address"
        },
        {
          "internalType": "address",
          "name": "to",
          "type": "address"
        },
        {
          "internalType": "uint256",
          "name": "tokenId",
          "type": "uint256"
        }
      ],
      "name": "safeTransferFrom",
      "outputs": [],
      "stateMutability": "nonpayable",
      "type": "function"
    },
    {
      "inputs": [
        {
          "internalType": "address",
          "name": "from",
          "type": "address"
        },
        {
          "internalType": "address",
          "name": "to",
          "type": "address"
        },
        {
          "internalType": "uint256",
          "name": "tokenId",
          "type": "uint256"
        },
        {
          "internalType": "bytes",
          "name": "_data",
          "type": "bytes"
        }
      ],
      "name": "safeTransferFrom",
      "outputs": [],
      "stateMutability": "nonpayable",
      "type": "function"
    },
    {
      "inputs": [
        {
          "internalType": "address",
          "name": "operator",
          "type": "address"
        },
        {
          "internalType": "bool",
          "name": "approved",
          "type": "bool"
        }
      ],
      "name": "setApprovalForAll",
      "outputs": [],
      "stateMutability": "nonpayable",
      "type": "function"
    },
    {
      "inputs": [
        {
          "internalType": "bytes4",
          "name": "interfaceId",
          "type": "bytes4"
        }
      ],
      "name": "supportsInterface",
      "outputs": [
        {
          "internalType": "bool",
          "name": "",
          "type": "bool"
        }
      ],
      "stateMutability": "view",
      "type": "function"
    },
    {
      "inputs": [],
      "name": "symbol",
      "outputs": [
        {
          "internalType": "string",
          "name": "",
          "type": "string"
        }
      ],
      "stateMutability": "view",
      "type": "function"
    },
    {
      "inputs": [
        {
          "internalType": "uint256",
          "name": "index",
          "type": "uint256"
        }
      ],
      "name": "tokenByIndex",
      "outputs": [
        {
          "internalType": "uint256",
          "name": "",
          "type": "uint256"
        }
      ],
      "stateMutability": "view",
      "type": "function"
    },
    {
      "inputs": [
        {
          "internalType": "address",
          "name": "owner",
          "type": "address"
        },
        {
          "internalType": "uint256",
          "name": "index",
          "type": "uint256"
        }
      ],
      "name": "tokenOfOwnerByIndex",
      "outputs": [
        {
          "internalType": "uint256",
          "name": "",
          "type": "uint256"
        }
      ],
      "stateMutability": "view",
      "type": "function"
    },
    {
      "inputs": [
        {
          "internalType": "uint256",
          "name": "tokenId",
          "type": "uint256"
        }
      ],
      "name": "tokenURI",
      "outputs": [
        {
          "internalType": "string",
          "name": "",
          "type": "string"
        }
      ],
      "stateMutability": "view",
      "type": "function"
    },
    {
      "inputs": [
        {
          "internalType": "address",
          "name": "_owner",
          "type": "address"
        }
      ],
      "name": "tokensOfOwner",
      "outputs": [
        {
          "internalType": "uint256[]",
          "name": "",
          "type": "uint256[]"
        }
      ],
      "stateMutability": "view",
      "type": "function"
    },
    {
      "inputs": [],
      "name": "totalSupply",
      "outputs": [
        {
          "internalType": "uint256",
          "name": "",
          "type": "uint256"
        }
      ],
      "stateMutability": "view",
      "type": "function"
    },
    {
      "inputs": [
        {
          "internalType": "address",
          "name": "from",
          "type": "address"
        },
        {
          "internalType": "address",
          "name": "to",
          "type": "address"
        },
        {
          "internalType": "uint256",
          "name": "tokenId",
          "type": "uint256"
        }
      ],
      "name": "transferFrom",
      "outputs": [],
      "stateMutability": "nonpayable",
      "type": "function"
    }
  ],
  "bytecode": "0x60806040523480156200001157600080fd5b50604080518082018252600e81526d436861696e676520546f6b656e7360901b602080830191825283518085019094526007845266434841494e474560c81b908401528151919291620000679160009162000086565b5080516200007d90600190602084019062000086565b50505062000169565b82805462000094906200012c565b90600052602060002090601f016020900481019282620000b8576000855562000103565b82601f10620000d357805160ff191683800117855562000103565b8280016001018555821562000103579182015b8281111562000103578251825591602001919060010190620000e6565b506200011192915062000115565b5090565b5b8082111562000111576000815560010162000116565b600181811c908216806200014157607f821691505b602082108114156200016357634e487b7160e01b600052602260045260246000fd5b50919050565b611e5480620001796000396000f3fe608060405234801561001057600080fd5b50600436106101215760003560e01c806345576f94116100ad57806395d89b411161007157806395d89b411461026d578063a22cb46514610275578063b88d4fde14610288578063c87b56dd1461029b578063e985e9c5146102ae57600080fd5b806345576f94146102015780634f6ccce7146102145780636352211e1461022757806370a082311461023a5780638462151c1461024d57600080fd5b806318160ddd116100f457806318160ddd146101a357806323b872dd146101b55780632f745c59146101c857806342842e0e146101db57806342966c68146101ee57600080fd5b806301ffc9a71461012657806306fdde031461014e578063081812fc14610163578063095ea7b31461018e575b600080fd5b610139610134366004611ac5565b6102ea565b60405190151581526020015b60405180910390f35b6101566102fb565b6040516101459190611c37565b610176610171366004611b43565b61038d565b6040516001600160a01b039091168152602001610145565b6101a161019c366004611a9c565b61041a565b005b6008545b604051908152602001610145565b6101a16101c33660046119ae565b610530565b6101a76101d6366004611a9c565b610562565b6101a16101e93660046119ae565b6105f8565b6101a16101fc366004611b43565b610613565b6101a761020f366004611afd565b61068d565b6101a7610222366004611b43565b6106be565b610176610235366004611b43565b61075f565b6101a7610248366004611962565b6107d6565b61026061025b366004611962565b61085d565b6040516101459190611bf3565b61015661091b565b6101a1610283366004611a62565b61092a565b6101a16102963660046119e9565b610939565b6101566102a9366004611b43565b610971565b6101396102bc36600461197c565b6001600160a01b03918216600090815260056020908152604080832093909416825291909152205460ff1690565b60006102f58261097c565b92915050565b60606000805461030a90611d5c565b80601f016020809104026020016040519081016040528092919081815260200182805461033690611d5c565b80156103835780601f1061035857610100808354040283529160200191610383565b820191906000526020600020905b81548152906001019060200180831161036657829003601f168201915b5050505050905090565b6000610398826109a1565b6103fe5760405162461bcd60e51b815260206004820152602c60248201527f4552433732313a20617070726f76656420717565727920666f72206e6f6e657860448201526b34b9ba32b73a103a37b5b2b760a11b60648201526084015b60405180910390fd5b506000908152600460205260409020546001600160a01b031690565b60006104258261075f565b9050806001600160a01b0316836001600160a01b031614156104935760405162461bcd60e51b815260206004820152602160248201527f4552433732313a20617070726f76616c20746f2063757272656e74206f776e656044820152603960f91b60648201526084016103f5565b336001600160a01b03821614806104af57506104af81336102bc565b6105215760405162461bcd60e51b815260206004820152603860248201527f4552433732313a20617070726f76652063616c6c6572206973206e6f74206f7760448201527f6e6572206e6f7220617070726f76656420666f7220616c6c000000000000000060648201526084016103f5565b61052b83836109be565b505050565b61053b335b82610a2c565b6105575760405162461bcd60e51b81526004016103f590611c9c565b61052b838383610b16565b600061056d836107d6565b82106105cf5760405162461bcd60e51b815260206004820152602b60248201527f455243373231456e756d657261626c653a206f776e657220696e646578206f7560448201526a74206f6620626f756e647360a81b60648201526084016103f5565b506001600160a01b03919091166000908152600660209081526040808320938352929052205490565b61052b83838360405180602001604052806000815250610939565b61061c33610535565b6106815760405162461bcd60e51b815260206004820152603060248201527f4552433732314275726e61626c653a2063616c6c6572206973206e6f74206f7760448201526f1b995c881b9bdc88185c1c1c9bdd995960821b60648201526084016103f5565b61068a81610cbd565b50565b600061069d600b80546001019055565b60006106a8600b5490565b90506106b43382610cc6565b6102f58184610ce0565b60006106c960085490565b821061072c5760405162461bcd60e51b815260206004820152602c60248201527f455243373231456e756d657261626c653a20676c6f62616c20696e646578206f60448201526b7574206f6620626f756e647360a01b60648201526084016103f5565b6008828154811061074d57634e487b7160e01b600052603260045260246000fd5b90600052602060002001549050919050565b6000818152600260205260408120546001600160a01b0316806102f55760405162461bcd60e51b815260206004820152602960248201527f4552433732313a206f776e657220717565727920666f72206e6f6e657869737460448201526832b73a103a37b5b2b760b91b60648201526084016103f5565b60006001600160a01b0382166108415760405162461bcd60e51b815260206004820152602a60248201527f4552433732313a2062616c616e636520717565727920666f7220746865207a65604482015269726f206164647265737360b01b60648201526084016103f5565b506001600160a01b031660009081526003602052604090205490565b6060600061086a836107d6565b905060008167ffffffffffffffff81111561089557634e487b7160e01b600052604160045260246000fd5b6040519080825280602002602001820160405280156108be578160200160208202803683370190505b50905060005b82811015610913576108d68582610562565b8282815181106108f657634e487b7160e01b600052603260045260246000fd5b60209081029190910101528061090b81611d97565b9150506108c4565b509392505050565b60606001805461030a90611d5c565b610935338383610d6b565b5050565b6109433383610a2c565b61095f5760405162461bcd60e51b81526004016103f590611c9c565b61096b84848484610e3a565b50505050565b60606102f582610e6d565b60006001600160e01b0319821663780e9d6360e01b14806102f557506102f582610fdc565b6000908152600260205260409020546001600160a01b0316151590565b600081815260046020526040902080546001600160a01b0319166001600160a01b03841690811790915581906109f38261075f565b6001600160a01b03167f8c5be1e5ebec7d5bd14f71427d1e84f3dd0314c0f7b2291e5b200ac8c7c3b92560405160405180910390a45050565b6000610a37826109a1565b610a985760405162461bcd60e51b815260206004820152602c60248201527f4552433732313a206f70657261746f7220717565727920666f72206e6f6e657860448201526b34b9ba32b73a103a37b5b2b760a11b60648201526084016103f5565b6000610aa38361075f565b9050806001600160a01b0316846001600160a01b03161480610aea57506001600160a01b0380821660009081526005602090815260408083209388168352929052205460ff165b80610b0e5750836001600160a01b0316610b038461038d565b6001600160a01b0316145b949350505050565b826001600160a01b0316610b298261075f565b6001600160a01b031614610b8d5760405162461bcd60e51b815260206004820152602560248201527f4552433732313a207472616e736665722066726f6d20696e636f72726563742060448201526437bbb732b960d91b60648201526084016103f5565b6001600160a01b038216610bef5760405162461bcd60e51b8152602060048201526024808201527f4552433732313a207472616e7366657220746f20746865207a65726f206164646044820152637265737360e01b60648201526084016103f5565b610bfa83838361102c565b610c056000826109be565b6001600160a01b0383166000908152600360205260408120805460019290610c2e908490611d19565b90915550506001600160a01b0382166000908152600360205260408120805460019290610c5c908490611ced565b909155505060008181526002602052604080822080546001600160a01b0319166001600160a01b0386811691821790925591518493918716917fddf252ad1be2c89b69c2b068fc378daa952ba7f163c4a11628f55a4df523b3ef91a4505050565b61068a81611037565b610935828260405180602001604052806000815250611077565b610ce9826109a1565b610d4c5760405162461bcd60e51b815260206004820152602e60248201527f45524337323155524953746f726167653a2055524920736574206f66206e6f6e60448201526d32bc34b9ba32b73a103a37b5b2b760911b60648201526084016103f5565b6000828152600a60209081526040909120825161052b92840190611801565b816001600160a01b0316836001600160a01b03161415610dcd5760405162461bcd60e51b815260206004820152601960248201527f4552433732313a20617070726f766520746f2063616c6c65720000000000000060448201526064016103f5565b6001600160a01b03838116600081815260056020908152604080832094871680845294825291829020805460ff191686151590811790915591519182527f17307eab39ab6107e8899845ad3d59bd9653f200f220920489ca2b5937696c31910160405180910390a3505050565b610e45848484610b16565b610e51848484846110aa565b61096b5760405162461bcd60e51b81526004016103f590611c4a565b6060610e78826109a1565b610ede5760405162461bcd60e51b815260206004820152603160248201527f45524337323155524953746f726167653a2055524920717565727920666f72206044820152703737b732bc34b9ba32b73a103a37b5b2b760791b60648201526084016103f5565b6000828152600a602052604081208054610ef790611d5c565b80601f0160208091040260200160405190810160405280929190818152602001828054610f2390611d5c565b8015610f705780601f10610f4557610100808354040283529160200191610f70565b820191906000526020600020905b815481529060010190602001808311610f5357829003601f168201915b505050505090506000610f8e60408051602081019091526000815290565b9050805160001415610fa1575092915050565b815115610fd3578082604051602001610fbb929190611b87565b60405160208183030381529060405292505050919050565b610b0e846111b7565b60006001600160e01b031982166380ac58cd60e01b148061100d57506001600160e01b03198216635b5e139f60e01b145b806102f557506301ffc9a760e01b6001600160e01b03198316146102f5565b61052b83838361128f565b61104081611347565b6000818152600a60205260409020805461105990611d5c565b15905061068a576000818152600a6020526040812061068a91611885565b61108183836113ee565b61108e60008484846110aa565b61052b5760405162461bcd60e51b81526004016103f590611c4a565b60006001600160a01b0384163b156111ac57604051630a85bd0160e11b81526001600160a01b0385169063150b7a02906110ee903390899088908890600401611bb6565b602060405180830381600087803b15801561110857600080fd5b505af1925050508015611138575060408051601f3d908101601f1916820190925261113591810190611ae1565b60015b611192573d808015611166576040519150601f19603f3d011682016040523d82523d6000602084013e61116b565b606091505b50805161118a5760405162461bcd60e51b81526004016103f590611c4a565b805181602001fd5b6001600160e01b031916630a85bd0160e11b149050610b0e565b506001949350505050565b60606111c2826109a1565b6112265760405162461bcd60e51b815260206004820152602f60248201527f4552433732314d657461646174613a2055524920717565727920666f72206e6f60448201526e3732bc34b9ba32b73a103a37b5b2b760891b60648201526084016103f5565b600061123d60408051602081019091526000815290565b9050600081511161125d5760405180602001604052806000815250611288565b806112678461152d565b604051602001611278929190611b87565b6040516020818303038152906040525b9392505050565b6001600160a01b0383166112ea576112e581600880546000838152600960205260408120829055600182018355919091527ff3f7a9fe364faab93b216da50a3214154f22a0a2b415b23a84c8169e8b636ee30155565b61130d565b816001600160a01b0316836001600160a01b03161461130d5761130d8382611647565b6001600160a01b0382166113245761052b816116e4565b826001600160a01b0316826001600160a01b03161461052b5761052b82826117bd565b60006113528261075f565b90506113608160008461102c565b61136b6000836109be565b6001600160a01b0381166000908152600360205260408120805460019290611394908490611d19565b909155505060008281526002602052604080822080546001600160a01b0319169055518391906001600160a01b038416907fddf252ad1be2c89b69c2b068fc378daa952ba7f163c4a11628f55a4df523b3ef908390a45050565b6001600160a01b0382166114445760405162461bcd60e51b815260206004820181905260248201527f4552433732313a206d696e7420746f20746865207a65726f206164647265737360448201526064016103f5565b61144d816109a1565b1561149a5760405162461bcd60e51b815260206004820152601c60248201527f4552433732313a20746f6b656e20616c7265616479206d696e7465640000000060448201526064016103f5565b6114a66000838361102c565b6001600160a01b03821660009081526003602052604081208054600192906114cf908490611ced565b909155505060008181526002602052604080822080546001600160a01b0319166001600160a01b03861690811790915590518392907fddf252ad1be2c89b69c2b068fc378daa952ba7f163c4a11628f55a4df523b3ef908290a45050565b6060816115515750506040805180820190915260018152600360fc1b602082015290565b8160005b811561157b578061156581611d97565b91506115749050600a83611d05565b9150611555565b60008167ffffffffffffffff8111156115a457634e487b7160e01b600052604160045260246000fd5b6040519080825280601f01601f1916602001820160405280156115ce576020820181803683370190505b5090505b8415610b0e576115e3600183611d19565b91506115f0600a86611db2565b6115fb906030611ced565b60f81b81838151811061161e57634e487b7160e01b600052603260045260246000fd5b60200101906001600160f81b031916908160001a905350611640600a86611d05565b94506115d2565b60006001611654846107d6565b61165e9190611d19565b6000838152600760205260409020549091508082146116b1576001600160a01b03841660009081526006602090815260408083208584528252808320548484528184208190558352600790915290208190555b5060009182526007602090815260408084208490556001600160a01b039094168352600681528383209183525290812055565b6008546000906116f690600190611d19565b6000838152600960205260408120546008805493945090928490811061172c57634e487b7160e01b600052603260045260246000fd5b90600052602060002001549050806008838154811061175b57634e487b7160e01b600052603260045260246000fd5b60009182526020808320909101929092558281526009909152604080822084905585825281205560088054806117a157634e487b7160e01b600052603160045260246000fd5b6001900381819060005260206000200160009055905550505050565b60006117c8836107d6565b6001600160a01b039093166000908152600660209081526040808320868452825280832085905593825260079052919091209190915550565b82805461180d90611d5c565b90600052602060002090601f01602090048101928261182f5760008555611875565b82601f1061184857805160ff1916838001178555611875565b82800160010185558215611875579182015b8281111561187557825182559160200191906001019061185a565b506118819291506118bb565b5090565b50805461189190611d5c565b6000825580601f106118a1575050565b601f01602090049060005260206000209081019061068a91905b5b8082111561188157600081556001016118bc565b600067ffffffffffffffff808411156118eb576118eb611df2565b604051601f8501601f19908116603f0116810190828211818310171561191357611913611df2565b8160405280935085815286868601111561192c57600080fd5b858560208301376000602087830101525050509392505050565b80356001600160a01b038116811461195d57600080fd5b919050565b600060208284031215611973578081fd5b61128882611946565b6000806040838503121561198e578081fd5b61199783611946565b91506119a560208401611946565b90509250929050565b6000806000606084860312156119c2578081fd5b6119cb84611946565b92506119d960208501611946565b9150604084013590509250925092565b600080600080608085870312156119fe578081fd5b611a0785611946565b9350611a1560208601611946565b925060408501359150606085013567ffffffffffffffff811115611a37578182fd5b8501601f81018713611a47578182fd5b611a56878235602084016118d0565b91505092959194509250565b60008060408385031215611a74578182fd5b611a7d83611946565b915060208301358015158114611a91578182fd5b809150509250929050565b60008060408385031215611aae578182fd5b611ab783611946565b946020939093013593505050565b600060208284031215611ad6578081fd5b813561128881611e08565b600060208284031215611af2578081fd5b815161128881611e08565b600060208284031215611b0e578081fd5b813567ffffffffffffffff811115611b24578182fd5b8201601f81018413611b34578182fd5b610b0e848235602084016118d0565b600060208284031215611b54578081fd5b5035919050565b60008151808452611b73816020860160208601611d30565b601f01601f19169290920160200192915050565b60008351611b99818460208801611d30565b835190830190611bad818360208801611d30565b01949350505050565b6001600160a01b0385811682528416602082015260408101839052608060608201819052600090611be990830184611b5b565b9695505050505050565b6020808252825182820181905260009190848201906040850190845b81811015611c2b57835183529284019291840191600101611c0f565b50909695505050505050565b6020815260006112886020830184611b5b565b60208082526032908201527f4552433732313a207472616e7366657220746f206e6f6e20455243373231526560408201527131b2b4bb32b91034b6b83632b6b2b73a32b960711b606082015260800190565b60208082526031908201527f4552433732313a207472616e736665722063616c6c6572206973206e6f74206f6040820152701ddb995c881b9bdc88185c1c1c9bdd9959607a1b606082015260800190565b60008219821115611d0057611d00611dc6565b500190565b600082611d1457611d14611ddc565b500490565b600082821015611d2b57611d2b611dc6565b500390565b60005b83811015611d4b578181015183820152602001611d33565b8381111561096b5750506000910152565b600181811c90821680611d7057607f821691505b60208210811415611d9157634e487b7160e01b600052602260045260246000fd5b50919050565b6000600019821415611dab57611dab611dc6565b5060010190565b600082611dc157611dc1611ddc565b500690565b634e487b7160e01b600052601160045260246000fd5b634e487b7160e01b600052601260045260246000fd5b634e487b7160e01b600052604160045260246000fd5b6001600160e01b03198116811461068a57600080fdfea26469706673582212200f14c328e692d919b586a804daf8980479d0def989b9c7ff75c4d5e2107ba19c64736f6c63430008040033",
  "linkReferences": {},
  "deployedLinkReferences": {}
}