{
  "_format": "hh-sol-artifact-1",
  "contractName": "NFT",
  "sourceName": "contracts/NFT.sol",
  "abi": [
    {
      "inputs": [],
      "stateMutability": "nonpayable",
      "type": "constructor"
    },
    {
      "anonymous": false,
      "inputs": [
        {
          "indexed": true,
          "internalType": "address",
          "name": "owner",
          "type": "address"
        },
        {
          "indexed": true,
          "internalType": "address",
          "name": "approved",
          "type": "address"
        },
        {
          "indexed": true,
          "internalType": "uint256",
          "name": "tokenId",
          "type": "uint256"
        }
      ],
      "name": "Approval",
      "type": "event"
    },
    {
      "anonymous": false,
      "inputs": [
        {
          "indexed": true,
          "internalType": "address",
          "name": "owner",
          "type": "address"
        },
        {
          "indexed": true,
          "internalType": "address",
          "name": "operator",
          "type": "address"
        },
        {
          "indexed": false,
          "internalType": "bool",
          "name": "approved",
          "type": "bool"
        }
      ],
      "name": "ApprovalForAll",
      "type": "event"
    },
    {
      "anonymous": false,
      "inputs": [
        {
          "indexed": true,
          "internalType": "address",
          "name": "from",
          "type": "address"
        },
        {
          "indexed": true,
          "internalType": "address",
          "name": "to",
          "type": "address"
        },
        {
          "indexed": true,
          "internalType": "uint256",
          "name": "tokenId",
          "type": "uint256"
        }
      ],
      "name": "Transfer",
      "type": "event"
    },
    {
      "inputs": [],
      "name": "MAX_SUPPLY",
      "outputs": [
        {
          "internalType": "uint256",
          "name": "",
          "type": "uint256"
        }
      ],
      "stateMutability": "view",
      "type": "function"
    },
    {
      "inputs": [
        {
          "internalType": "address",
          "name": "to",
          "type": "address"
        },
        {
          "internalType": "uint256",
          "name": "tokenId",
          "type": "uint256"
        }
      ],
      "name": "approve",
      "outputs": [],
      "stateMutability": "nonpayable",
      "type": "function"
    },
    {
      "inputs": [
        {
          "internalType": "address",
          "name": "owner",
          "type": "address"
        }
      ],
      "name": "balanceOf",
      "outputs": [
        {
          "internalType": "uint256",
          "name": "",
          "type": "uint256"
        }
      ],
      "stateMutability": "view",
      "type": "function"
    },
    {
      "inputs": [
        {
          "internalType": "uint256",
          "name": "tokenId",
          "type": "uint256"
        }
      ],
      "name": "burn",
      "outputs": [],
      "stateMutability": "nonpayable",
      "type": "function"
    },
    {
      "inputs": [
        {
          "internalType": "string",
          "name": "tokenURI",
          "type": "string"
        }
      ],
      "name": "createToken",
      "outputs": [
        {
          "internalType": "uint256",
          "name": "",
          "type": "uint256"
        }
      ],
      "stateMutability": "nonpayable",
      "type": "function"
    },
    {
      "inputs": [
        {
          "internalType": "uint256",
          "name": "tokenId",
          "type": "uint256"
        }
      ],
      "name": "getApproved",
      "outputs": [
        {
          "internalType": "address",
          "name": "",
          "type": "address"
        }
      ],
      "stateMutability": "view",
      "type": "function"
    },
    {
      "inputs": [
        {
          "internalType": "address",
          "name": "owner",
          "type": "address"
        },
        {
          "internalType": "address",
          "name": "operator",
          "type": "address"
        }
      ],
      "name": "isApprovedForAll",
      "outputs": [
        {
          "internalType": "bool",
          "name": "",
          "type": "bool"
        }
      ],
      "stateMutability": "view",
      "type": "function"
    },
    {
      "inputs": [],
      "name": "name",
      "outputs": [
        {
          "internalType": "string",
          "name": "",
          "type": "string"
        }
      ],
      "stateMutability": "view",
      "type": "function"
    },
    {
      "inputs": [
        {
          "internalType": "uint256",
          "name": "tokenId",
          "type": "uint256"
        }
      ],
      "name": "ownerOf",
      "outputs": [
        {
          "internalType": "address",
          "name": "",
          "type": "address"
        }
      ],
      "stateMutability": "view",
      "type": "function"
    },
    {
      "inputs": [
        {
          "internalType": "address",
          "name": "from",
          "type": "address"
        },
        {
          "internalType": "address",
          "name": "to",
          "type": "address"
        },
        {
          "internalType": "uint256",
          "name": "tokenId",
          "type": "uint256"
        }
      ],
      "name": "safeTransferFrom",
      "outputs": [],
      "stateMutability": "nonpayable",
      "type": "function"
    },
    {
      "inputs": [
        {
          "internalType": "address",
          "name": "from",
          "type": "address"
        },
        {
          "internalType": "address",
          "name": "to",
          "type": "address"
        },
        {
          "internalType": "uint256",
          "name": "tokenId",
          "type": "uint256"
        },
        {
          "internalType": "bytes",
          "name": "_data",
          "type": "bytes"
        }
      ],
      "name": "safeTransferFrom",
      "outputs": [],
      "stateMutability": "nonpayable",
      "type": "function"
    },
    {
      "inputs": [
        {
          "internalType": "address",
          "name": "operator",
          "type": "address"
        },
        {
          "internalType": "bool",
          "name": "approved",
          "type": "bool"
        }
      ],
      "name": "setApprovalForAll",
      "outputs": [],
      "stateMutability": "nonpayable",
      "type": "function"
    },
    {
      "inputs": [
        {
          "internalType": "bytes4",
          "name": "interfaceId",
          "type": "bytes4"
        }
      ],
      "name": "supportsInterface",
      "outputs": [
        {
          "internalType": "bool",
          "name": "",
          "type": "bool"
        }
      ],
      "stateMutability": "view",
      "type": "function"
    },
    {
      "inputs": [],
      "name": "symbol",
      "outputs": [
        {
          "internalType": "string",
          "name": "",
          "type": "string"
        }
      ],
      "stateMutability": "view",
      "type": "function"
    },
    {
      "inputs": [
        {
          "internalType": "uint256",
          "name": "index",
          "type": "uint256"
        }
      ],
      "name": "tokenByIndex",
      "outputs": [
        {
          "internalType": "uint256",
          "name": "",
          "type": "uint256"
        }
      ],
      "stateMutability": "view",
      "type": "function"
    },
    {
      "inputs": [
        {
          "internalType": "address",
          "name": "owner",
          "type": "address"
        },
        {
          "internalType": "uint256",
          "name": "index",
          "type": "uint256"
        }
      ],
      "name": "tokenOfOwnerByIndex",
      "outputs": [
        {
          "internalType": "uint256",
          "name": "",
          "type": "uint256"
        }
      ],
      "stateMutability": "view",
      "type": "function"
    },
    {
      "inputs": [
        {
          "internalType": "uint256",
          "name": "tokenId",
          "type": "uint256"
        }
      ],
      "name": "tokenURI",
      "outputs": [
        {
          "internalType": "string",
          "name": "",
          "type": "string"
        }
      ],
      "stateMutability": "view",
      "type": "function"
    },
    {
      "inputs": [
        {
          "internalType": "address",
          "name": "_owner",
          "type": "address"
        }
      ],
      "name": "tokensOfOwner",
      "outputs": [
        {
          "internalType": "uint256[]",
          "name": "",
          "type": "uint256[]"
        }
      ],
      "stateMutability": "view",
      "type": "function"
    },
    {
      "inputs": [],
      "name": "totalSupply",
      "outputs": [
        {
          "internalType": "uint256",
          "name": "",
          "type": "uint256"
        }
      ],
      "stateMutability": "view",
      "type": "function"
    },
    {
      "inputs": [
        {
          "internalType": "address",
          "name": "from",
          "type": "address"
        },
        {
          "internalType": "address",
          "name": "to",
          "type": "address"
        },
        {
          "internalType": "uint256",
          "name": "tokenId",
          "type": "uint256"
        }
      ],
      "name": "transferFrom",
      "outputs": [],
      "stateMutability": "nonpayable",
      "type": "function"
    }
  ],
  "bytecode": "0x60806040523480156200001157600080fd5b50604080518082018252600e81526d436861696e676520546f6b656e7360901b602080830191825283518085019094526007845266434841494e474560c81b908401528151919291620000679160009162000086565b5080516200007d90600190602084019062000086565b50505062000169565b82805462000094906200012c565b90600052602060002090601f016020900481019282620000b8576000855562000103565b82601f10620000d357805160ff191683800117855562000103565b8280016001018555821562000103579182015b8281111562000103578251825591602001919060010190620000e6565b506200011192915062000115565b5090565b5b8082111562000111576000815560010162000116565b600181811c908216806200014157607f821691505b602082108114156200016357634e487b7160e01b600052602260045260246000fd5b50919050565b611ec680620001796000396000f3fe608060405234801561001057600080fd5b506004361061012c5760003560e01c806345576f94116100ad57806395d89b411161007157806395d89b4114610280578063a22cb46514610288578063b88d4fde1461029b578063c87b56dd146102ae578063e985e9c5146102c157600080fd5b806345576f94146102145780634f6ccce7146102275780636352211e1461023a57806370a082311461024d5780638462151c1461026057600080fd5b806323b872dd116100f457806323b872dd146101c05780632f745c59146101d357806332cb6b0c146101e657806342842e0e146101ee57806342966c681461020157600080fd5b806301ffc9a71461013157806306fdde0314610159578063081812fc1461016e578063095ea7b31461019957806318160ddd146101ae575b600080fd5b61014461013f366004611b37565b6102fd565b60405190151581526020015b60405180910390f35b61016161030e565b6040516101509190611ca9565b61018161017c366004611bb5565b6103a0565b6040516001600160a01b039091168152602001610150565b6101ac6101a7366004611b0e565b61042d565b005b6008545b604051908152602001610150565b6101ac6101ce366004611a20565b610543565b6101b26101e1366004611b0e565b610575565b6101b2606481565b6101ac6101fc366004611a20565b61060b565b6101ac61020f366004611bb5565b610626565b6101b2610222366004611b6f565b6106a0565b6101b2610235366004611bb5565b610731565b610181610248366004611bb5565b6107d2565b6101b261025b3660046119d4565b610849565b61027361026e3660046119d4565b6108d0565b6040516101509190611c65565b61016161098e565b6101ac610296366004611ad4565b61099d565b6101ac6102a9366004611a5b565b6109ac565b6101616102bc366004611bb5565b6109e4565b6101446102cf3660046119ee565b6001600160a01b03918216600090815260056020908152604080832093909416825291909152205460ff1690565b6000610308826109ef565b92915050565b60606000805461031d90611dce565b80601f016020809104026020016040519081016040528092919081815260200182805461034990611dce565b80156103965780601f1061036b57610100808354040283529160200191610396565b820191906000526020600020905b81548152906001019060200180831161037957829003601f168201915b5050505050905090565b60006103ab82610a14565b6104115760405162461bcd60e51b815260206004820152602c60248201527f4552433732313a20617070726f76656420717565727920666f72206e6f6e657860448201526b34b9ba32b73a103a37b5b2b760a11b60648201526084015b60405180910390fd5b506000908152600460205260409020546001600160a01b031690565b6000610438826107d2565b9050806001600160a01b0316836001600160a01b031614156104a65760405162461bcd60e51b815260206004820152602160248201527f4552433732313a20617070726f76616c20746f2063757272656e74206f776e656044820152603960f91b6064820152608401610408565b336001600160a01b03821614806104c257506104c281336102cf565b6105345760405162461bcd60e51b815260206004820152603860248201527f4552433732313a20617070726f76652063616c6c6572206973206e6f74206f7760448201527f6e6572206e6f7220617070726f76656420666f7220616c6c00000000000000006064820152608401610408565b61053e8383610a31565b505050565b61054e335b82610a9f565b61056a5760405162461bcd60e51b815260040161040890611d0e565b61053e838383610b89565b600061058083610849565b82106105e25760405162461bcd60e51b815260206004820152602b60248201527f455243373231456e756d657261626c653a206f776e657220696e646578206f7560448201526a74206f6620626f756e647360a81b6064820152608401610408565b506001600160a01b03919091166000908152600660209081526040808320938352929052205490565b61053e838383604051806020016040528060008152506109ac565b61062f33610548565b6106945760405162461bcd60e51b815260206004820152603060248201527f4552433732314275726e61626c653a2063616c6c6572206973206e6f74206f7760448201526f1b995c881b9bdc88185c1c1c9bdd995960821b6064820152608401610408565b61069d81610d30565b50565b6000806106ac600b5490565b905060646106bb826001611d5f565b11156106fb5760405162461bcd60e51b815260206004820152600f60248201526e4e4f5420454e4f554748204e46545360881b6044820152606401610408565b610709600b80546001019055565b6000610714600b5490565b90506107203382610d39565b61072a8185610d53565b9392505050565b600061073c60085490565b821061079f5760405162461bcd60e51b815260206004820152602c60248201527f455243373231456e756d657261626c653a20676c6f62616c20696e646578206f60448201526b7574206f6620626f756e647360a01b6064820152608401610408565b600882815481106107c057634e487b7160e01b600052603260045260246000fd5b90600052602060002001549050919050565b6000818152600260205260408120546001600160a01b0316806103085760405162461bcd60e51b815260206004820152602960248201527f4552433732313a206f776e657220717565727920666f72206e6f6e657869737460448201526832b73a103a37b5b2b760b91b6064820152608401610408565b60006001600160a01b0382166108b45760405162461bcd60e51b815260206004820152602a60248201527f4552433732313a2062616c616e636520717565727920666f7220746865207a65604482015269726f206164647265737360b01b6064820152608401610408565b506001600160a01b031660009081526003602052604090205490565b606060006108dd83610849565b905060008167ffffffffffffffff81111561090857634e487b7160e01b600052604160045260246000fd5b604051908082528060200260200182016040528015610931578160200160208202803683370190505b50905060005b82811015610986576109498582610575565b82828151811061096957634e487b7160e01b600052603260045260246000fd5b60209081029190910101528061097e81611e09565b915050610937565b509392505050565b60606001805461031d90611dce565b6109a8338383610dde565b5050565b6109b63383610a9f565b6109d25760405162461bcd60e51b815260040161040890611d0e565b6109de84848484610ead565b50505050565b606061030882610ee0565b60006001600160e01b0319821663780e9d6360e01b148061030857506103088261104f565b6000908152600260205260409020546001600160a01b0316151590565b600081815260046020526040902080546001600160a01b0319166001600160a01b0384169081179091558190610a66826107d2565b6001600160a01b03167f8c5be1e5ebec7d5bd14f71427d1e84f3dd0314c0f7b2291e5b200ac8c7c3b92560405160405180910390a45050565b6000610aaa82610a14565b610b0b5760405162461bcd60e51b815260206004820152602c60248201527f4552433732313a206f70657261746f7220717565727920666f72206e6f6e657860448201526b34b9ba32b73a103a37b5b2b760a11b6064820152608401610408565b6000610b16836107d2565b9050806001600160a01b0316846001600160a01b03161480610b5d57506001600160a01b0380821660009081526005602090815260408083209388168352929052205460ff165b80610b815750836001600160a01b0316610b76846103a0565b6001600160a01b0316145b949350505050565b826001600160a01b0316610b9c826107d2565b6001600160a01b031614610c005760405162461bcd60e51b815260206004820152602560248201527f4552433732313a207472616e736665722066726f6d20696e636f72726563742060448201526437bbb732b960d91b6064820152608401610408565b6001600160a01b038216610c625760405162461bcd60e51b8152602060048201526024808201527f4552433732313a207472616e7366657220746f20746865207a65726f206164646044820152637265737360e01b6064820152608401610408565b610c6d83838361109f565b610c78600082610a31565b6001600160a01b0383166000908152600360205260408120805460019290610ca1908490611d8b565b90915550506001600160a01b0382166000908152600360205260408120805460019290610ccf908490611d5f565b909155505060008181526002602052604080822080546001600160a01b0319166001600160a01b0386811691821790925591518493918716917fddf252ad1be2c89b69c2b068fc378daa952ba7f163c4a11628f55a4df523b3ef91a4505050565b61069d816110aa565b6109a88282604051806020016040528060008152506110ea565b610d5c82610a14565b610dbf5760405162461bcd60e51b815260206004820152602e60248201527f45524337323155524953746f726167653a2055524920736574206f66206e6f6e60448201526d32bc34b9ba32b73a103a37b5b2b760911b6064820152608401610408565b6000828152600a60209081526040909120825161053e92840190611873565b816001600160a01b0316836001600160a01b03161415610e405760405162461bcd60e51b815260206004820152601960248201527f4552433732313a20617070726f766520746f2063616c6c6572000000000000006044820152606401610408565b6001600160a01b03838116600081815260056020908152604080832094871680845294825291829020805460ff191686151590811790915591519182527f17307eab39ab6107e8899845ad3d59bd9653f200f220920489ca2b5937696c31910160405180910390a3505050565b610eb8848484610b89565b610ec48484848461111d565b6109de5760405162461bcd60e51b815260040161040890611cbc565b6060610eeb82610a14565b610f515760405162461bcd60e51b815260206004820152603160248201527f45524337323155524953746f726167653a2055524920717565727920666f72206044820152703737b732bc34b9ba32b73a103a37b5b2b760791b6064820152608401610408565b6000828152600a602052604081208054610f6a90611dce565b80601f0160208091040260200160405190810160405280929190818152602001828054610f9690611dce565b8015610fe35780601f10610fb857610100808354040283529160200191610fe3565b820191906000526020600020905b815481529060010190602001808311610fc657829003601f168201915b50505050509050600061100160408051602081019091526000815290565b9050805160001415611014575092915050565b81511561104657808260405160200161102e929190611bf9565b60405160208183030381529060405292505050919050565b610b818461122a565b60006001600160e01b031982166380ac58cd60e01b148061108057506001600160e01b03198216635b5e139f60e01b145b8061030857506301ffc9a760e01b6001600160e01b0319831614610308565b61053e838383611301565b6110b3816113b9565b6000818152600a6020526040902080546110cc90611dce565b15905061069d576000818152600a6020526040812061069d916118f7565b6110f48383611460565b611101600084848461111d565b61053e5760405162461bcd60e51b815260040161040890611cbc565b60006001600160a01b0384163b1561121f57604051630a85bd0160e11b81526001600160a01b0385169063150b7a0290611161903390899088908890600401611c28565b602060405180830381600087803b15801561117b57600080fd5b505af19250505080156111ab575060408051601f3d908101601f191682019092526111a891810190611b53565b60015b611205573d8080156111d9576040519150601f19603f3d011682016040523d82523d6000602084013e6111de565b606091505b5080516111fd5760405162461bcd60e51b815260040161040890611cbc565b805181602001fd5b6001600160e01b031916630a85bd0160e11b149050610b81565b506001949350505050565b606061123582610a14565b6112995760405162461bcd60e51b815260206004820152602f60248201527f4552433732314d657461646174613a2055524920717565727920666f72206e6f60448201526e3732bc34b9ba32b73a103a37b5b2b760891b6064820152608401610408565b60006112b060408051602081019091526000815290565b905060008151116112d0576040518060200160405280600081525061072a565b806112da8461159f565b6040516020016112eb929190611bf9565b6040516020818303038152906040529392505050565b6001600160a01b03831661135c5761135781600880546000838152600960205260408120829055600182018355919091527ff3f7a9fe364faab93b216da50a3214154f22a0a2b415b23a84c8169e8b636ee30155565b61137f565b816001600160a01b0316836001600160a01b03161461137f5761137f83826116b9565b6001600160a01b0382166113965761053e81611756565b826001600160a01b0316826001600160a01b03161461053e5761053e828261182f565b60006113c4826107d2565b90506113d28160008461109f565b6113dd600083610a31565b6001600160a01b0381166000908152600360205260408120805460019290611406908490611d8b565b909155505060008281526002602052604080822080546001600160a01b0319169055518391906001600160a01b038416907fddf252ad1be2c89b69c2b068fc378daa952ba7f163c4a11628f55a4df523b3ef908390a45050565b6001600160a01b0382166114b65760405162461bcd60e51b815260206004820181905260248201527f4552433732313a206d696e7420746f20746865207a65726f20616464726573736044820152606401610408565b6114bf81610a14565b1561150c5760405162461bcd60e51b815260206004820152601c60248201527f4552433732313a20746f6b656e20616c7265616479206d696e746564000000006044820152606401610408565b6115186000838361109f565b6001600160a01b0382166000908152600360205260408120805460019290611541908490611d5f565b909155505060008181526002602052604080822080546001600160a01b0319166001600160a01b03861690811790915590518392907fddf252ad1be2c89b69c2b068fc378daa952ba7f163c4a11628f55a4df523b3ef908290a45050565b6060816115c35750506040805180820190915260018152600360fc1b602082015290565b8160005b81156115ed57806115d781611e09565b91506115e69050600a83611d77565b91506115c7565b60008167ffffffffffffffff81111561161657634e487b7160e01b600052604160045260246000fd5b6040519080825280601f01601f191660200182016040528015611640576020820181803683370190505b5090505b8415610b8157611655600183611d8b565b9150611662600a86611e24565b61166d906030611d5f565b60f81b81838151811061169057634e487b7160e01b600052603260045260246000fd5b60200101906001600160f81b031916908160001a9053506116b2600a86611d77565b9450611644565b600060016116c684610849565b6116d09190611d8b565b600083815260076020526040902054909150808214611723576001600160a01b03841660009081526006602090815260408083208584528252808320548484528184208190558352600790915290208190555b5060009182526007602090815260408084208490556001600160a01b039094168352600681528383209183525290812055565b60085460009061176890600190611d8b565b6000838152600960205260408120546008805493945090928490811061179e57634e487b7160e01b600052603260045260246000fd5b9060005260206000200154905080600883815481106117cd57634e487b7160e01b600052603260045260246000fd5b600091825260208083209091019290925582815260099091526040808220849055858252812055600880548061181357634e487b7160e01b600052603160045260246000fd5b6001900381819060005260206000200160009055905550505050565b600061183a83610849565b6001600160a01b039093166000908152600660209081526040808320868452825280832085905593825260079052919091209190915550565b82805461187f90611dce565b90600052602060002090601f0160209004810192826118a157600085556118e7565b82601f106118ba57805160ff19168380011785556118e7565b828001600101855582156118e7579182015b828111156118e75782518255916020019190600101906118cc565b506118f392915061192d565b5090565b50805461190390611dce565b6000825580601f10611913575050565b601f01602090049060005260206000209081019061069d91905b5b808211156118f3576000815560010161192e565b600067ffffffffffffffff8084111561195d5761195d611e64565b604051601f8501601f19908116603f0116810190828211818310171561198557611985611e64565b8160405280935085815286868601111561199e57600080fd5b858560208301376000602087830101525050509392505050565b80356001600160a01b03811681146119cf57600080fd5b919050565b6000602082840312156119e5578081fd5b61072a826119b8565b60008060408385031215611a00578081fd5b611a09836119b8565b9150611a17602084016119b8565b90509250929050565b600080600060608486031215611a34578081fd5b611a3d846119b8565b9250611a4b602085016119b8565b9150604084013590509250925092565b60008060008060808587031215611a70578081fd5b611a79856119b8565b9350611a87602086016119b8565b925060408501359150606085013567ffffffffffffffff811115611aa9578182fd5b8501601f81018713611ab9578182fd5b611ac887823560208401611942565b91505092959194509250565b60008060408385031215611ae6578182fd5b611aef836119b8565b915060208301358015158114611b03578182fd5b809150509250929050565b60008060408385031215611b20578182fd5b611b29836119b8565b946020939093013593505050565b600060208284031215611b48578081fd5b813561072a81611e7a565b600060208284031215611b64578081fd5b815161072a81611e7a565b600060208284031215611b80578081fd5b813567ffffffffffffffff811115611b96578182fd5b8201601f81018413611ba6578182fd5b610b8184823560208401611942565b600060208284031215611bc6578081fd5b5035919050565b60008151808452611be5816020860160208601611da2565b601f01601f19169290920160200192915050565b60008351611c0b818460208801611da2565b835190830190611c1f818360208801611da2565b01949350505050565b6001600160a01b0385811682528416602082015260408101839052608060608201819052600090611c5b90830184611bcd565b9695505050505050565b6020808252825182820181905260009190848201906040850190845b81811015611c9d57835183529284019291840191600101611c81565b50909695505050505050565b60208152600061072a6020830184611bcd565b60208082526032908201527f4552433732313a207472616e7366657220746f206e6f6e20455243373231526560408201527131b2b4bb32b91034b6b83632b6b2b73a32b960711b606082015260800190565b60208082526031908201527f4552433732313a207472616e736665722063616c6c6572206973206e6f74206f6040820152701ddb995c881b9bdc88185c1c1c9bdd9959607a1b606082015260800190565b60008219821115611d7257611d72611e38565b500190565b600082611d8657611d86611e4e565b500490565b600082821015611d9d57611d9d611e38565b500390565b60005b83811015611dbd578181015183820152602001611da5565b838111156109de5750506000910152565b600181811c90821680611de257607f821691505b60208210811415611e0357634e487b7160e01b600052602260045260246000fd5b50919050565b6000600019821415611e1d57611e1d611e38565b5060010190565b600082611e3357611e33611e4e565b500690565b634e487b7160e01b600052601160045260246000fd5b634e487b7160e01b600052601260045260246000fd5b634e487b7160e01b600052604160045260246000fd5b6001600160e01b03198116811461069d57600080fdfea26469706673582212202b2f2eefce748da4a40ea74fce6b9f28d72fbeb3f2cd9b999bc7b71adadc242364736f6c63430008040033",
  "linkReferences": {},
  "deployedLinkReferences": {}
}